:020000040800F2
:10000000600600200D020008490200084B020008AB
:100010004D0200084F0200085102000800000000D5
:100020000000000000000000000000005302000873
:10003000550200080000000057020008590200089D
:100040005B0200085B0200085B0200085B0200081C
:100050005B0200085B0200085B0200085B0200080C
:100060005B0200085B0200085B0200085B020008FC
:100070005B0200085B0200085B0200085B020008EC
:100080005B0200085B0200085B0200085B020008DC
:100090005B0200085B0200085B0200085B020008CC
:1000A0005B0200085B0200085B0200085B020008BC
:1000B0005B0200085B0200085B0200085B020008AC
:1000C0005B0200085B0200085B0200085B0200089C
:1000D0005B0200085B0200085B0200085B0200088C
:1000E0005B0200085B0200085B0200085B0200087C
:1000F0005B0200085B0200085B0200085B0200086C
:100100005B0200085B0200085B0200085B0200085B
:100110005B0200085B0200085B0200085B0200084B
:100120005B0200085B0200085B0200085B0200083B
:100130005B0200085B0200085B0200085B0200082B
:100140005B0200085B0200085B0200085B0200081B
:100150005B0200085B0200085B0200085B0200080B
:100160005B0200085B0200085B0200085B020008FB
:100170005B0200085B0200085B0200080000000050
:100180005B0200085B02000800F002F800F02EF8A5
:100190000AA090E8000C82448344AAF10107DA45E2
:1001A00001D100F023F8AFF2090EBAE80F0013F006
:1001B000010F18BFFB1A43F001031847A004000009
:1001C000B00400000023002400250026103A28BFB8
:1001D00078C1FBD8520728BF30C148BF0B607047B9
:1001E0001FB500F035FA1FBD10B510BD00F053F873
:1001F0001146FFF7F5FF00F0DDF800F071F803B4E9
:10020000FFF7F2FF03BC00F079F800001648174929
:10021000174B99423CBF50F8042B41F8042BF8D3FC
:1002200014494FF000028B4238BF43F8042BFAD335
:10023000DFF84400016841F470010160BFF34F8FA3
:10024000BFF36F8F0D480047FEE7FEE7FEE7FEE7CE
:10025000FEE7FEE7FEE7FEE7FEE7FEE7084809499E
:10026000094A0A4B704700006C0600080000002095
:10027000000000206006002088ED00E089010008F1
:100280006000002060060020600200206002002064
:10029000704770477047754600F02CF8AE46050071
:1002A0006946534620F00700854618B020B5FFF791
:1002B000D5FFBDE820404FF000064FF000074FF09B
:1002C00000084FF0000B21F00701AC46ACE8C00974
:1002D000ACE8C009ACE8C009ACE8C0098D4670477D
:1002E00010B50446AFF300802046BDE81040FFF78C
:1002F00086BF000000487047000000200149182018
:10030000ABBEFEE7260002007047000000B50F48B4
:10031000006880F004000D4908600D48406980F4D1
:1003200080700B4948610F2000F014F807480068FE
:1003300080F00400054908600548406980F4807039
:1003400003494861052000F005F800BD1404004889
:10035000001000480146002200E0521C40F63540E3
:100360004843B2EB401FF8D37047000000B50F4878
:10037000006880F004000D4908600D48406980F471
:1003800080700B4948610520FFF7E4FF07480068CB
:1003900080F00400054908600548406980F48070D9
:1003A000034948610520FFF7D5FF00BD140400484C
:1003B00000100048A348006840F48070A14908601C
:1003C00000BFA048006800F480600028F9D09D4874
:1003D000806820F003009B4988600846806840F0F0
:1003E0000100886000BF9748806800F00C0000287A
:1003F000F9D09448C06C40F002009249C864924819
:10040000006820F02000904908600846006840F02D
:10041000100008608B48C06C40F010008949C86427
:100420008A48006820F4403088490860084600681F
:1004300040F4803008608348C06C40F0010081497E
:10044000C8644FF09040006840F6FF4188434FF089
:10045000904108600846C06840F6AA0188434FF002
:100460009041C8600846C06840F6AA0108434FF0B2
:100470009041C860E5E04FF09040006900F0010055
:10048000A8B171481430006880F004006E4914313E
:1004900008606E48406980F480706C49486100BF14
:1004A0004FF09040006900F001000028F8D14FF0B3
:1004B0009040006900F0020002280FD16248143019
:1004C000006880F0040060491431086000BF4FF0FC
:1004D0009040006900F002000028F8D14FF09040F1
:1004E000006900F0040004280DD15848406980F4E8
:1004F00080705649486100BF4FF09040006900F09D
:1005000004000028F8D14FF09040006900F0080086
:1005100008287FD10023002402E0FFF727FF5B1C9F
:10052000042BFADB0F20FFF715FF002302E0FFF793
:100530001DFF5B1C012BFADB0F20FFF70BFF10E008
:1005400000230CE0FFF712FFFFF7E0FEFFF70EFFBE
:10055000FFF70CFF0F20FFF7FDFE641C5B1C012B57
:10056000F0DB022CECDB002302E0FFF7CFFE5B1C8C
:10057000032BFADB2320FFF7EDFE002306E0FFF755
:10058000F5FEFFF7C3FEFFF7C1FE5B1C012BF6DB98
:100590000F20FFF7DFFE002302E0FFF7B7FE5B1C32
:1005A000032BFADB002306E0FFF7E0FEFFF7AEFEC9
:1005B000FFF7DCFE5B1C012BF6DB0F20FFF7CAFE0A
:1005C000002308E0FFF7D2FEFFF7A0FEFFF7CEFE04
:1005D000FFF7CCFE5B1C012BF4DB0F20FFF7BAFE0C
:1005E000002306E0FFF792FEFFF7C0FEFFF7BEFE16
:1005F0005B1C012BF6DB2320FFF7ACFE002300BFC2
:100600004FF09040006900F008000028F8D100E0A9
:1006100000E000BF4FF09040006900F0200020286B
:100620000FD109481430006880F0040006491431E5
:10063000086000BF4FF09040006900F020000028E3
:10064000F8D118E7001002400004004800100048EC
:100650004FF04070E1EE100A704700006C06000891
:0C0660000000002060060000C40100083B
:040000050800018965
:00000001FF
