:020000040800F2
:1000000080060020310200086D0200086F0200081F
:100010007102000873020008750200080000000069
:10002000000000000000000000000000770200084F
:1000300079020008000000007B0200087D02000831
:100040007F0200087F0200087F0200087F0200088C
:100050007F0200087F0200087F0200087F0200087C
:100060007F0200087F0200087F0200087F0200086C
:100070007F0200087F0200087F0200087F0200085C
:100080007F0200087F020008250500087F020008A3
:100090007F0200087F0200087F0200087F0200083C
:1000A0007F0200087F0200087F0200087F0200082C
:1000B0007F0200087F0200087F0200087F0200081C
:1000C0007F0200087F0200087F0200087F0200080C
:1000D0007F0200087F0200087F0200087F020008FC
:1000E0007F0200087F0200087F0200087F020008EC
:1000F0007F0200087F0200087F0200087F020008DC
:100100007F0200087F0200087F0200087F020008CB
:100110007F0200087F0200087F0200087F020008BB
:100120007F0200087F0200087F0200087F020008AB
:100130007F0200087F0200087F0200087F0200089B
:100140007F0200087F0200087F0200087F0200088B
:100150007F0200087F0200087F0200087F0200087B
:100160007F0200087F0200087F0200087F0200086B
:100170007F0200087F0200087F02000800000000E4
:100180007F0200087F02000800F002F800F041F84A
:100190000AA090E8000C82448344AAF10107DA45E2
:1001A00001D100F036F8AFF2090EBAE80F0013F0F3
:1001B000010F18BFFB1A43F0010318473813000062
:1001C00058130000103A24BF78C878C1FAD85207F3
:1001D00024BF30C830C144BF04680C6070470000C1
:1001E0000023002400250026103A28BF78C1FBD840
:1001F000520728BF30C148BF0B607047642900F028
:10020000A180002070471FB501F04AF91FBD10B54D
:1002100010BD00F04CF91146FFF7F5FF01F094F81E
:1002200000F06AF903B4FFF7F2FF03BC00F072F9C3
:1002300016481749174B99423CBF50F8042B41F818
:10024000042BF8D314494FF000028B4238BF43F817
:10025000042BFAD3DFF84400016841F47001016017
:10026000BFF34F8FBFF36F8F0D480047FEE7FEE7E8
:10027000FEE7FEE7FEE7FEE7FEE7FEE7FEE7FEE756
:1002800008480949094A0A4B70470000141500083C
:10029000000000201C0000208006002088ED00E007
:1002A00089010008800000208006002080020020D4
:1002B000800200200FB41CB5074B06AA7B44694698
:1002C0000090059800F0DBF80020694600F0EAF89D
:1002D0001CBC5DF814FB0000E50100002DE9F041B5
:1002E0000E460446002020622046E168884730B36D
:1002F000252805D0D4E901219047206A401CF2E767
:10030000E168204600278847050018D0A5F1410084
:10031000192802D820354FF4006732462946204676
:100320002760FFF76BFF40B1012804D0F61D26F0CF
:1003300007060836D8E7361DD6E72846DAE7206AEA
:10034000BDE8F0812DE9F0410646002410687529CA
:10035000314616A510D0AFF30080002802DA4042E3
:1003600013A507E031688A0701D512A502E0490705
:1003700004D511A5012401E0AFF3008000210A2279
:1003800006F1240709E0B0FBF2FCB0FBF2F302FB3C
:100390001C00303078541846491C0028F3D12346FD
:1003A0002A463046BDE8F04100F00BB800000000DE
:1003B0002D0000002B000000200000007047704757
:1003C00070472DE9F0470D4699469246044600F1E4
:1003D00024080168880604D5E06921F01001216035
:1003E00000E00120A84201DD471B00E00027A169D1
:1003F0007A1902EB0900081AA0612078C00602D41D
:100400002046AFF30080002608E0D4E901211AF865
:1004100006009047206A401C761C20624E45F4DBA3
:100420002078C0060AD52046AFF3008006E0D4E964
:10043000012130209047206A401C2062381EA7F11D
:100440000107F4DC07E0D4E9012118F80500904722
:10045000206A401C2062281EA5F10105F3DC20461D
:10046000AFF300802078000602D50220BDE8F087B7
:100470000120FBE701694A1C02610878704700B55A
:100480008FB0CDE901310021059105497944CDE9CD
:10049000031011466846FFF721FF0FB000BD0000B2
:1004A000E5FFFFFF0A6802F8010B0A607047754616
:1004B00000F02CF8AE4605006946534620F00700D0
:1004C000854618B020B5FFF7DBFEBDE820404FF0B1
:1004D00000064FF000074FF000084FF0000B21F02E
:1004E0000701AC46ACE8C009ACE8C009ACE8C009FB
:1004F000ACE8C0098D46704710B50446AFF30080E4
:100500002046BDE81040FFF78DBE00000048704750
:100510001C00002001491820ABBEFEE726000200A7
:10052000704700001548006800F00400042804D15A
:100530001248006C124908601FE01048006800F083
:100540004000402819D10D48803000680D490860EE
:100550000A48843000680C49086008488830006800
:100560000A49086005488C3000680949086003485A
:10057000006840F00800014908607047000004501E
:100580000000002004000020080000200C000020D3
:100590001000002000B53F48C06C40F400503D49B9
:1005A000C8643D48806820F001003B4988603B48B2
:1005B000406840F48070394948603948006840F428
:1005C00080003549C1F808030846D0F8080320F434
:1005D0007010C1F808030846D0F8080320F4403032
:1005E000C1F808030846D0F8080340F48030C1F889
:1005F00008030846D0F8080320F01F00C1F80803DC
:1006000000F050F82448C06820F018002249C86063
:100610000846C06820F02000C8600846006B20F043
:100620000F0008630846006B20F4F8600863084672
:10063000006B40F0800008630846006B40F4807057
:1006400008630846D0F8B00020F04000C1F8B000C0
:100650000846406920F4E01048610846406940F4CB
:10066000A01048610846C06820F40050C8600846E1
:10067000C06820F44060C8600846806840F001000F
:10068000886000BF0448006800F001000028F9D02D
:1006900000BD0000001002400000045000000140B6
:1006A000080304500C49896801F00051B1F1005F62
:1006B00005D10949896821F00051074A916006492E
:1006C000896841F08051044A91604FF4C86000E0AD
:1006D000401E0028FCD17047000004500F480068FD
:1006E00040F480700D49086000BF0C48006800F4B9
:1006F00080600028F9D00948806820F0030007498D
:1007000088600846806840F00100886000BF0348A8
:10071000806800F00C000028F9D0704700100240FB
:10072000002000BF0B49096801F004010029F9D13C
:10073000002006E0002207490C3141F82020411C2E
:10074000C8B20F28F6DD0349096841F00401014AE7
:1007500011607047082400402F48806D00F08050E1
:1007600028B92D48806D40F080502B4988652A4873
:10077000806D2A48006800F4807060B927480068DE
:1007800040F480702549086000BF2448006800F4E8
:1007900080700028F9D020489030006820F00500D3
:1007A0001D49C1F890000846D0F8900040F4803010
:1007B000C1F890000846D0F8900020F48030C1F8CD
:1007C000900007E014489030006840F001001249A2
:1007D000C1F8900010489030006800F00200002836
:1007E000F0D00D489030006820F440700A49C1F8FC
:1007F00090000846D0F8900040F48070C1F8900056
:100800000846806D20F0805088650846806D40F471
:1008100000708865704700000010024000700040C2
:100820002248006820F060002049086008460068FF
:1008300040F0400008600846006840F01C00086076
:100840000846006820F004000860081D006840F0B9
:100850007000091D0860081F006820F08000091F53
:1008600008600846006820F00200086000BF0F48DA
:100870000830006800F020002028F8D10B480068FC
:1008800040F001000949086000BF084808300068CE
:1008900000F001000028F8D000BF044808300068CC
:1008A00000F010001028F8D170470000002400402C
:1008B000F0B50C4615460021002600220778332F9C
:1008C00051D00FDCA7F12007132F59D2DFE807F032
:1008D00023585858583D5858282A25385835403BF1
:1008E00048494A00392F44D008DCA7F13407052FC6
:1008F00046D2DFE807F0393A3B3C3D006E2F19D075
:1009000004DC642F10D06D2F3AD110E0B02F24D02A
:10091000FF2F35D11EE000214BE04AF2DD0148E017
:10092000282146E0112144E04FF4734141E04BF2AD
:1009300010213EE042F210213BE04FF4204138E02C
:100940004AF2140135E0C02133E04FF4334130E086
:1009500001242EE04FF6DD712BE04FF46C4128E0CE
:1009600000BF00BF00BF00BF00BF00BF00BF00BF8F
:1009700000BF0778303FDFF868C03CF8171018E078
:1009800007785B2F08DA0778402F05DD0778413FAD
:10099000DFF850C03CF8171007787B2F08DA07788B
:1009A000602F05DD0778613FDFF838C03CF817108D
:1009B00000BF00BF0CB141F002010DB141F02001B8
:1009C0000C26002208E041FA06F707F00F079F54B3
:1009D000371FFEB2571CFAB2042AF4DBF0BD000048
:1009E000DE140008AA14000870B50546002406E0CD
:1009F000E3B228190022114600F0D4F8641C062C3A
:100A0000F6DB70BD00B500F007F8FFF7A5FEFFF7B5
:100A100007FFFFF785FE00BD5348C06C40F00F0094
:100A20005149C8644FF090400068504908404FF069
:100A300090410860084600684D4908434FF09041D6
:100A400008600846006A20F07F4008620846006A95
:100A500040F03B4008620846406A464908404FF073
:100A6000904148620846406A434908434FF090412C
:100A700048620846006840F6FF4188434FF09041C5
:100A800008600846C06840F6FF4188434FF0904137
:100A9000C8600846C06840F6AA0108434FF090417C
:100AA000C86036480068364908403449086008463E
:100AB00000683449084331490860304820300068F4
:100AC00000F0FF202D49203108600846006840F002
:100AD000BB1008602948406A4FF60F71084027494B
:100AE00048620846406A2849084324494862274822
:100AF00000682749084025490860084600682549DC
:100B0000084322490860214820300068C0F30B00E8
:100B10001E4920310860084600681F4908431B49E8
:100B2000203108601948406A20F00F0117484162DF
:100B3000406A40F00B01154841621848006880B2D5
:100B400016490860084600681549084313490860BB
:100B50000846406A002111484162406A40F0BB31BA
:100B60000E4841627047000000100240FF0FC03F76
:100B700000A02A8000F0FF0FBB0B00B0000400486B
:100B8000F0F0F3000A0A08AAB000BBBB0008004856
:100B90003F00FCFF80AA020000B0BBBB000C004875
:100BA0000000AAAAF8B505460E4617461C466B4635
:100BB0003A4631462846FFF77BFE00BFFE480068F4
:100BC00000F004000028F9D1062C7DD2DFE804F003
:100BD0000398FCFBFAF9F8480C300068F749084024
:100BE000F5490C310860F4480838C069F3490840F9
:100BF000F1490839C8610846406AF0490840EE49A1
:100C0000083948620846C06AEC490840EA49083990
:100C1000C8629DF80000C007C00E9DF80010C1F327
:100C2000400140EAC1509DF80010C1F3800140EA44
:100C300081509DF80010C1F3C00140EAC100DE49B7
:100C40000C3109680843DC490C3108609DF801004B
:100C5000C007C00E9DF80110C1F3400140EAC15029
:100C60009DF80110C1F3800140EA81509DF8011008
:100C7000C1F3C00140EAC100CF490839C96908433E
:100C8000CD490839C8619DF80200C007C00E9DF823
:100C90000210C1F3400140EAC1509DF80210C1F3B7
:100CA000800140EA81509DF80210C1F3C00140EA82
:100CB000C100C1490839496A0843BF490839486237
:100CC0009DF80300C00700E02EE3C00E9DF803105E
:100CD000C1F3400140EAC1509DF80310C1F3800107
:100CE00040EA81509DF80310C1F3C00140EAC10001
:100CF000B1490839C96A0843AF490839C86214E3E1
:100D0000AD480C30006843F260018843AA490C31B9
:100D10000860A9480838C06943F260018843A649C1
:100D20000839C8610846406A43F260018843A24915
:100D3000083948620846C06A43F2600188439E4908
:100D40000839C8629DF80000C007400E9DF80010E9
:100D5000C1F3400140EA41309DF80010C1F3800129
:100D600040EA01309DF80010C1F3C00140EA411093
:100D700091490C31096808438F490C3108609DF88E
:100D80000100C007400E9DF80110C1F3400140EA88
:100D900041309DF80110C1F3800140EA01309DF817
:100DA0000110C1F3C00140EA411083490839C96903
:100DB000084381490839C8619DF80200C007400E08
:100DC00003E028E27CE1CAE036E09DF80210C1F3BE
:100DD000400140EA41309DF80210C1F3800140EA31
:100DE00001309DF80210C1F3C00140EA4110724980
:100DF0000839496A08437049083948629DF8030078
:100E0000C007400E9DF80310C1F3400140EA413095
:100E10009DF80310C1F3800140EA01309DF80310F2
:100E2000C1F3C00140EA411063490839C96A084367
:100E300061490839C86278E25F480C30006860494F
:100E400008405D490C3108605B480838C0695C495E
:100E5000084059490839C8610846406A584908405D
:100E60005549083948620846C06A55490840524900
:100E70000839C8629DF80000C007000C9DF80010FA
:100E8000C1F3400140EA41709DF80010C1F38001B8
:100E900040EA01709DF80010C1F3C00140EA8130C2
:100EA00045490C310968084343490C3108609DF8F5
:100EB0000100C007000C9DF80110C1F3400140EA99
:100EC00041709DF80110C1F3800140EA01709DF866
:100ED0000110C1F3C00140EA813037490839C969BE
:100EE000084335490839C8619DF80200C007000C65
:100EF0009DF80210C1F3400140EA41709DF80210D4
:100F0000C1F3800140EA01709DF80210C1F3C001F5
:100F100040EA813028490839496A08432649083996
:100F200048629DF80300C007000C9DF80310C1F350
:100F3000400140EA41709DF80310C1F3800140EA8E
:100F400001709DF80310C1F3C00140EA81301A49D5
:100F50000839C96A084318490839C862E5E11648E2
:100F60000C30006820F0404013490C3108601248F2
:100F70000838806920F003010F4808388161C06992
:100F800020F040410C480838C161006A20F003019C
:100F9000094808380162406A20F040410648083894
:100FA0004162806A20F00301034808388162C06A08
:100FB00020F04041004805E008240040E7FF3FFFE3
:100FC000FF3FFFCF0838C162006B20F00301DC480F
:100FD00001639DF80000C0079DF80010C1F3C00137
:100FE00040EA8170D649143109680843D449143164
:100FF00008609DF80000C0F380009DF80010C1F368
:10100000400140EA4100CE4989690843CC498861E2
:101010009DF80100C0079DF80110C1F3C00140EA2E
:101020008170C749C9690843C549C8619DF8010075
:10103000C0F380009DF80110C1F3400140EA410077
:10104000BF49096A0843BE4908629DF80200C0070B
:101050009DF80210C1F3C00140EA8170B849496AA5
:101060000843B74948629DF80200C0F380009DF82C
:101070000210C1F3400140EA4100B149896A0843C6
:10108000AF4988629DF80300C0079DF80310C1F3C3
:10109000C00140EA8170AA49C96A0843A849C862E8
:1010A0009DF80300C0F380009DF80310C1F34001D8
:1010B00040EA4100A249096B0843A149086334E1B1
:1010C0009F481430006820F040709D49143108603A
:1010D0009B48806920F00C0199488161C06920F02B
:1010E00040719748C161006A20F00C019448016288
:1010F000406A20F0407192484162806A20F00C0101
:101100008F488162C06A20F040718D48C162006BD7
:1011100020F00C018A4801639DF80000C0F34000F4
:1011200040069DF80010C1F3800140EA0160844947
:101130001431096808438249143108609DF80000A1
:10114000C007000F9DF80010C1F3C00140EA810004
:101150007B49896908437A4988619DF80100C0F399
:10116000400040069DF80110C1F3800140EA016093
:101170007349C96908437249C8619DF80100C007F5
:10118000000F9DF80110C1F3C00140EA81006C49D5
:10119000096A08436A4908629DF80200C0F34000EA
:1011A00040069DF80210C1F3800140EA01606449E5
:1011B000496A0843624948629DF80200C007000F6F
:1011C0009DF80210C1F3C00140EA81005C49896AC0
:1011D00008435B4988629DF80300C0F34000400665
:1011E0009DF80310C1F3800140EA01605449C96AC7
:1011F00008435349C8629DF80300C007000F9DF8DB
:101200000310C1F3C00140EA81004D49096B084356
:101210004B49086389E04A4814300068494908404E
:101220004749143108604648C06946490840444966
:10123000C8610846406A4349084041494862084637
:10124000C06A404908403E49C8629DF80000C00796
:10125000800B9DF80010C1F3400140EA01209DF889
:101260000010C1F3800140EA41209DF80010C1F355
:10127000C00140EA816032491431096808433049AD
:10128000143108609DF80100C007800B9DF8011023
:10129000C1F3400140EA01209DF80110C1F3800133
:1012A00040EA41209DF80110C1F3C00140EA81608D
:1012B0002349C96908432249C8619DF80200C00753
:1012C000800B9DF80210C1F3400140EA01209DF817
:1012D0000210C1F3800140EA41209DF80210C1F3E1
:1012E000C00140EA81601649496A084314494862CE
:1012F0009DF80300C007800B9DF80310C1F3400167
:1013000040EA01209DF80310C1F3800140EA41202A
:101310009DF80310C1F3C00140EA81600849C96A21
:1013200008430749C86200E000BF00BF0448083016
:10133000006840F00400024908310860F8BD000070
:1013400000240040FFFCFDFBFFF7C8F9FFF704FA9B
:10135000FFF758FBFFF7E4F94A48C06C40F0020081
:101360004849C8644848006820F030004649086091
:101370000846006840F01000086043480C300068E0
:1013800020F0300040490C3108603E48C06C40F00D
:1013900001003C49C8644FF09040006820F00C0008
:1013A0004FF0904108600846006840F00C0008606B
:1013B0000846C06A40F00200C8623248C06C40F083
:1013C00010003049C8643148006820F440302F498B
:1013D00008600846006840F480300860FFF7DAF8DB
:1013E0004FE02B48806840F004002949886000BF26
:1013F0002848006800F004000428F9D12448006C53
:101400000D21B0FBF1F0A0F13504224622A12348C2
:10141000FEF750FF2148FFF7E7FA1D48006C0D2149
:10142000B0FBF1F0C82808D917481430006840F024
:1014300004001549143108600EE01548006C0D21B8
:10144000B0FBF1F0642807D20F481430006820F098
:1014500004000D49143108600D48006C0D21B0FBEB
:10146000F1F0B0F5917F06D90848406920F480700A
:101470000649486105E00548406940F48070034929
:101480004861AEE700100240000400480010004828
:1014900000000450000304502564000014000020E4
:1014A0004FF04070E1EE100A704700FE1467001D17
:1014B0001447009D009C003F00FA1400005341981F
:1014C0000019485A095A005F00FC015F01FC00AF97
:1014D0001404005BC018815AC9005800C005005FA1
:1014E000004200F5006700EA00AF00BF004600FFC1
:1014F00000EF000014150008000000201C00000090
:10150000C4010008301500081C000020640600001B
:10151000E0010008000000000000000000000000E2
:1015200000000000000000002020202020200000FB
:040000050800018965
:00000001FF
