:020000040800F2
:100000008006002029020008650200086702000837
:10001000690200086B0200086D0200080000000081
:100020000000000000000000000000006F02000857
:100030007102000800000000730200087502000849
:1000400077020008770200087702000877020008AC
:10005000770200087702000877020008770200089C
:10006000770200087702000877020008770200088C
:10007000770200087702000877020008770200087C
:10008000770200087702000877020008770200086C
:10009000770200087702000877020008770200085C
:1000A000770200087702000877020008770200084C
:1000B000770200087702000877020008770200083C
:1000C000770200087702000877020008770200082C
:1000D000770200087702000877020008770200081C
:1000E000770200087702000877020008770200080C
:1000F00077020008770200087702000877020008FC
:1001000077020008770200087702000877020008EB
:1001100077020008770200087702000877020008DB
:1001200077020008770200087702000877020008CB
:1001300077020008770200087702000877020008BB
:1001400077020008770200087702000877020008AB
:10015000770200087702000877020008770200089B
:10016000770200087702000877020008770200088B
:1001700077020008770200087702000800000000FC
:10018000770200087702000800F002F800F03CF85F
:100190000AA090E8000C82448344AAF10107DA45E2
:1001A00001D100F031F8AFF2090EBAE80F0013F0F8
:1001B000010F18BFFB1A43F001031847B00F0000EE
:1001C000D00F0000103A24BF78C878C1FAD852077F
:1001D00024BF30C830C144BF04680C6070470000C1
:1001E0000023002400250026103A28BF78C1FBD840
:1001F000520728BF30C148BF0B6070471FB500F0E1
:100200008CFF1FBD10B510BD00F053F81146FFF76D
:10021000F5FF00F071FF00F071F803B4FFF7F2FF93
:1002200003BC00F079F8000016481749174B9942B3
:100230003CBF50F8042B41F8042BF8D314494FF07D
:1002400000028B4238BF43F8042BFAD3DFF8440096
:10025000016841F470010160BFF34F8FBFF36F8FEE
:100260000D480047FEE7FEE7FEE7FEE7FEE7FEE794
:10027000FEE7FEE7FEE7FEE708480949094A0A4BA0
:10028000704700008C1100080000002020000020B2
:100290008006002088ED00E0890100088000002031
:1002A00080060020800200208002002070477047F6
:1002B0007047754600F02CF8AE4605006946534677
:1002C00020F00700854618B020B5FFF7D5FFBDE840
:1002D00020404FF000064FF000074FF000084FF0AD
:1002E000000B21F00701AC46ACE8C009ACE8C0093E
:1002F000ACE8C009ACE8C0098D46704710B50446AB
:10030000AFF300802046BDE81040FFF786BF000035
:10031000004870472000002001491820ABBEFEE7CE
:100320002600020070470146002200E0521C01EB4B
:100330004100C0EBC110B2EB800FF7D37047000053
:100340006348C06C40F010006149C8644FF09040B1
:10035000006840F6FC4188434FF0904108605D48DA
:10036000006820F07F605B4908600846006840F044
:10037000AA600860002058490870A8E0002057498A
:1003800008709FE05348406920F47050514948611B
:1003900052480178022000F0B6FEC0F10F004D492E
:1003A000496941EA80204B49486100204C49087066
:1003B0007EE00120FFF7B7FF49480078032872D09C
:1003C00047480178491C022000F09DFE4FF0904103
:1003D00009690840002866D141480078042803D103
:1003E00001204049087002E000203E4908703C4866
:1003F00000783C490978411A3848007801EB8000C0
:100400000C2826D03648007836490978411A3348F6
:10041000007801EB80000E281BD033490968304A70
:10042000127811442F4A12788A1A2C49097802EB63
:10043000810029490B780022114600F08BFA2648EA
:100440000078062822DA24480078401C22490870E7
:100450001CE02348007823490978411A1F48007896
:1004600001EB80000C2811D11B480078002804DD26
:1004700019480078401E1849087017480378002270
:10048000114619480068103000F064FA00BF1448A3
:100490000178491C022000F036FE4FF090410969B6
:1004A00008400028F3D00E480078401C0C49087022
:1004B0000B4800780528FFF67CAF08480078401C00
:1004C00006490870054800780428FFF65BAF55E739
:1004D00000100240001000481C0000200200002014
:1004E000030000200400002018000020002000BFAE
:1004F0000B49096801F004010029F9D1002006E048
:10050000002207490C3141F82020411CC8B20F28B5
:10051000F6DD0349096841F00401014A11607047A2
:10052000082400402F48806D00F0805028B92D48E5
:10053000806D40F080502B4988652A48806D2A489C
:10054000006800F4807060B92748006840F480704B
:100550002549086000BF2448006800F48070002826
:10056000F9D020489030006820F005001D49C1F8FE
:1005700090000846D0F8900040F48030C1F8900018
:100580000846D0F8900020F48030C1F8900007E0D1
:1005900014489030006840F001001249C1F8900002
:1005A00010489030006800F002000028F0D00D489C
:1005B0009030006820F440700A49C1F89000084665
:1005C000D0F8900040F48070C1F890000846806D2B
:1005D00020F0805088650846806D40F40070886582
:1005E0007047000000100240007000402248006880
:1005F00020F06000204908600846006840F0400094
:1006000008600846006840F01C0008600846006862
:1006100020F004000860081D006840F07000091D0B
:100620000860081F006820F08000091F0860084665
:10063000006820F00200086000BF0F480830006822
:1006400000F020002028F8D10B48006840F001009D
:100650000949086000BF08480830006800F0010040
:100660000028F8D000BF04480830006800F01000EF
:100670001028F8D17047000000240040F0B50C4667
:1006800015460021002600220778342F53D00FDCB6
:10069000A7F12007142F5AD2DFE807F02359595940
:1006A00059435959282A253B5938593E494A4B4CF8
:1006B000642F1FD008DCA7F13507052F47D2DFE8EC
:1006C00007F03B3C3D3E3F00B02F27D004DC6D2FB0
:1006D00013D06E2F3BD113E0B52F14D0FF2F36D19E
:1006E00022E000214CE04AF2DD0149E0282147E008
:1006F000112145E04FF4734142E04BF210213FE0FD
:1007000042F210213CE046F2840139E04FF42041EE
:1007100036E04AF2140133E0C02131E04FF46C417D
:100720002EE04FF433412BE04FF6DD7128E000BF9F
:1007300000BF00BF00BF00BF00BF00BF00BF00BFC1
:100740000778303FDFF864C03CF8171018E00778EE
:100750005B2F08DA0778402F05DD0778413FDFF887
:1007600050C03CF8171007787B2F08DA0778602F05
:1007700005DD0778613FDFF838C03CF8171000BF8F
:1007800000BF0CB141F002010DB141F020010C2677
:10079000002208E041FA06F707F00F079F54371FC1
:1007A000FEB2571CFAB2042AF4DBF0BD581100085F
:1007B0002411000800B500F007F8FFF7B3FEFFF7BB
:1007C00015FFFFF793FE00BD5348C06C40F00F00CB
:1007D0005149C8644FF090400068504908404FF0BC
:1007E00090410860084600684D4908434FF0904129
:1007F00008600846006A20F07F4008620846006AE8
:1008000040F03B4008620846406A464908404FF0C5
:10081000904148620846406A434908434FF090417E
:1008200048620846006840F6FF4188434FF0904117
:1008300008600846C06840F6FF4188434FF0904189
:10084000C8600846C06840F6AA0108434FF09041CE
:10085000C860364800683649084034490860084690
:100860000068344908433149086030482030006846
:1008700000F0FF202D49203108600846006840F054
:10088000BB1008602948406A4FF60F71084027499D
:1008900048620846406A2849084324494862274874
:1008A000006827490840254908600846006825492E
:1008B000084322490860214820300068C0F30B003B
:1008C0001E4920310860084600681F4908431B493B
:1008D000203108601948406A20F00F011748416232
:1008E000406A40F00B01154841621848006880B228
:1008F000164908600846006815490843134908600E
:100900000846406A002111484162406A40F0BB310C
:100910000E4841627047000000100240FF0FC03FC8
:1009200000A02A8000F0FF0FBB0B00B000040048BD
:10093000F0F0F3000A0A08AAB000BBBB00080048A8
:100940003F00FCFF80AA020000B0BBBB000C0048C7
:100950000000AAAAF8B505460E4617461C466B4687
:100960003A4631462846FFF789FE00BFFE48006838
:1009700000F004000028F9D1062C7DD2DFE804F055
:100980000398FCFBFAF9F8480C300068F749084076
:10099000F5490C310860F4480838C069F34908404B
:1009A000F1490839C8610846406AF0490840EE49F3
:1009B000083948620846C06AEC490840EA490839E3
:1009C000C8629DF80000C007C00E9DF80010C1F37A
:1009D000400140EAC1509DF80010C1F3800140EA97
:1009E00081509DF80010C1F3C00140EAC100DE490A
:1009F0000C3109680843DC490C3108609DF801009E
:100A0000C007C00E9DF80110C1F3400140EAC1507B
:100A10009DF80110C1F3800140EA81509DF801105A
:100A2000C1F3C00140EAC100CF490839C969084390
:100A3000CD490839C8619DF80200C007C00E9DF875
:100A40000210C1F3400140EAC1509DF80210C1F309
:100A5000800140EA81509DF80210C1F3C00140EAD4
:100A6000C100C1490839496A0843BF490839486289
:100A70009DF80300C00700E02EE3C00E9DF80310B0
:100A8000C1F3400140EAC1509DF80310C1F3800159
:100A900040EA81509DF80310C1F3C00140EAC10053
:100AA000B1490839C96A0843AF490839C86214E333
:100AB000AD480C30006843F260018843AA490C310C
:100AC0000860A9480838C06943F260018843A64914
:100AD0000839C8610846406A43F260018843A24968
:100AE000083948620846C06A43F2600188439E495B
:100AF0000839C8629DF80000C007400E9DF800103C
:100B0000C1F3400140EA41309DF80010C1F380017B
:100B100040EA01309DF80010C1F3C00140EA4110E5
:100B200091490C31096808438F490C3108609DF8E0
:100B30000100C007400E9DF80110C1F3400140EADA
:100B400041309DF80110C1F3800140EA01309DF869
:100B50000110C1F3C00140EA411083490839C96955
:100B6000084381490839C8619DF80200C007400E5A
:100B700003E028E27CE1CAE036E09DF80210C1F310
:100B8000400140EA41309DF80210C1F3800140EA83
:100B900001309DF80210C1F3C00140EA41107249D2
:100BA0000839496A08437049083948629DF80300CA
:100BB000C007400E9DF80310C1F3400140EA4130E8
:100BC0009DF80310C1F3800140EA01309DF8031045
:100BD000C1F3C00140EA411063490839C96A0843BA
:100BE00061490839C86278E25F480C3000686049A2
:100BF00008405D490C3108605B480838C0695C49B1
:100C0000084059490839C8610846406A58490840AF
:100C10005549083948620846C06A55490840524952
:100C20000839C8629DF80000C007000C9DF800104C
:100C3000C1F3400140EA41709DF80010C1F380010A
:100C400040EA01709DF80010C1F3C00140EA813014
:100C500045490C310968084343490C3108609DF847
:100C60000100C007000C9DF80110C1F3400140EAEB
:100C700041709DF80110C1F3800140EA01709DF8B8
:100C80000110C1F3C00140EA813037490839C96910
:100C9000084335490839C8619DF80200C007000CB7
:100CA0009DF80210C1F3400140EA41709DF8021026
:100CB000C1F3800140EA01709DF80210C1F3C00148
:100CC00040EA813028490839496A084326490839E9
:100CD00048629DF80300C007000C9DF80310C1F3A3
:100CE000400140EA41709DF80310C1F3800140EAE1
:100CF00001709DF80310C1F3C00140EA81301A4928
:100D00000839C96A084318490839C862E5E1164834
:100D10000C30006820F0404013490C310860124844
:100D20000838806920F003010F4808388161C069E4
:100D300020F040410C480838C161006A20F00301EE
:100D4000094808380162406A20F0404106480838E6
:100D50004162806A20F00301034808388162C06A5A
:100D600020F04041004805E008240040E7FF3FFF35
:100D7000FF3FFFCF0838C162006B20F00301DC4861
:100D800001639DF80000C0079DF80010C1F3C00189
:100D900040EA8170D649143109680843D4491431B6
:100DA00008609DF80000C0F380009DF80010C1F3BA
:100DB000400140EA4100CE4989690843CC49886135
:100DC0009DF80100C0079DF80110C1F3C00140EA81
:100DD0008170C749C9690843C549C8619DF80100C8
:100DE000C0F380009DF80110C1F3400140EA4100CA
:100DF000BF49096A0843BE4908629DF80200C0075E
:100E00009DF80210C1F3C00140EA8170B849496AF7
:100E10000843B74948629DF80200C0F380009DF87E
:100E20000210C1F3400140EA4100B149896A084318
:100E3000AF4988629DF80300C0079DF80310C1F315
:100E4000C00140EA8170AA49C96A0843A849C8623A
:100E50009DF80300C0F380009DF80310C1F340012A
:100E600040EA4100A249096B0843A149086334E103
:100E70009F481430006820F040709D49143108608C
:100E80009B48806920F00C0199488161C06920F07D
:100E900040719748C161006A20F00C0194480162DA
:100EA000406A20F0407192484162806A20F00C0153
:100EB0008F488162C06A20F040718D48C162006B2A
:100EC00020F00C018A4801639DF80000C0F3400047
:100ED00040069DF80010C1F3800140EA016084499A
:100EE0001431096808438249143108609DF80000F4
:100EF000C007000F9DF80010C1F3C00140EA810057
:100F00007B49896908437A4988619DF80100C0F3EB
:100F1000400040069DF80110C1F3800140EA0160E5
:100F20007349C96908437249C8619DF80100C00747
:100F3000000F9DF80110C1F3C00140EA81006C4927
:100F4000096A08436A4908629DF80200C0F340003C
:100F500040069DF80210C1F3800140EA0160644937
:100F6000496A0843624948629DF80200C007000FC1
:100F70009DF80210C1F3C00140EA81005C49896A12
:100F800008435B4988629DF80300C0F340004006B7
:100F90009DF80310C1F3800140EA01605449C96A19
:100FA00008435349C8629DF80300C007000F9DF82D
:100FB0000310C1F3C00140EA81004D49096B0843A9
:100FC0004B49086389E04A481430006849490840A1
:100FD0004749143108604648C069464908404449B9
:100FE000C8610846406A434908404149486208468A
:100FF000C06A404908403E49C8629DF80000C007E9
:10100000800B9DF80010C1F3400140EA01209DF8DB
:101010000010C1F3800140EA41209DF80010C1F3A7
:10102000C00140EA816032491431096808433049FF
:10103000143108609DF80100C007800B9DF8011075
:10104000C1F3400140EA01209DF80110C1F3800185
:1010500040EA41209DF80110C1F3C00140EA8160DF
:101060002349C96908432249C8619DF80200C007A5
:10107000800B9DF80210C1F3400140EA01209DF869
:101080000210C1F3800140EA41209DF80210C1F333
:10109000C00140EA81601649496A08431449486220
:1010A0009DF80300C007800B9DF80310C1F34001B9
:1010B00040EA01209DF80310C1F3800140EA41207D
:1010C0009DF80310C1F3C00140EA81600849C96A74
:1010D00008430749C86200E000BF00BF0448083069
:1010E000006840F00400024908310860F8BD0000C3
:1010F00000240040FFFCFDFB10B5FFF75BFBFFF792
:101100001FF9002010BD0246012003E000FB02F39E
:10111000D8B2491E0029F9DC70474FF04070E1EE6B
:10112000100A704700FE1467001D1447009D009CC4
:10113000003F00FA1400005341980019485A095A18
:10114000005F00FC015F01FC00AF1404005BC018ED
:10115000815AC9005800C005005F004200F50067D1
:1011600000EA00AF00BF004600FF00EF8C1100084E
:101170000000002020000000C4010008AC1100089D
:101180002000002060060000E001000800000000D0
:101190000031323341343536423738394323302336
:0C11A000442000000500002000000000BA
:040000050800018965
:00000001FF
