:020000040800F2
:10000000B006002029020008650200086702000807
:10001000690200086B0200086D0200080000000081
:100020000000000000000000000000006F02000857
:100030007102000800000000730200087502000849
:1000400077020008770200087702000877020008AC
:10005000770200087702000877020008770200089C
:10006000770200087702000877020008770200088C
:10007000770200087702000877020008770200087C
:10008000770200087702000877020008770200086C
:10009000770200087702000877020008770200085C
:1000A000770200087702000877020008770200084C
:1000B000770200087702000877020008770200083C
:1000C000770200087702000877020008770200082C
:1000D000770200087702000877020008770200081C
:1000E000770200087702000877020008770200080C
:1000F00077020008770200087702000877020008FC
:1001000077020008770200087702000877020008EB
:1001100077020008770200087702000877020008DB
:1001200077020008770200087702000877020008CB
:1001300077020008770200087702000877020008BB
:1001400077020008770200087702000877020008AB
:10015000770200087702000877020008770200089B
:10016000770200087702000877020008770200088B
:1001700077020008770200087702000800000000FC
:10018000770200087702000800F002F800F03CF85F
:100190000AA090E8000C82448344AAF10107DA45E2
:1001A00001D100F031F8AFF2090EBAE80F0013F0F8
:1001B000010F18BFFB1A43F001031847F4190000A0
:1001C000141A0000103A24BF78C878C1FAD8520730
:1001D00024BF30C830C144BF04680C6070470000C1
:1001E0000023002400250026103A28BF78C1FBD840
:1001F000520728BF30C148BF0B6070471FB501F0E0
:10020000ADFC1FBD10B510BD00F053F81146FFF74F
:10021000F5FF01F035F800F071F803B4FFF7F2FFD5
:1002200003BC00F079F8000016481749174B9942B3
:100230003CBF50F8042B41F8042BF8D314494FF07D
:1002400000028B4238BF43F8042BFAD3DFF8440096
:10025000016841F470010160BFF34F8FBFF36F8FEE
:100260000D480047FEE7FEE7FEE7FEE7FEE7FEE794
:10027000FEE7FEE7FEE7FEE708480949094A0A4BA0
:1002800070470000D01B0008000000204C00002038
:10029000B006002088ED00E089010008B0000020D1
:1002A000B0060020B0020020B00200207047704766
:1002B0007047754600F02CF8AE4605006946534677
:1002C00020F00700854618B020B5FFF7D5FFBDE840
:1002D00020404FF000064FF000074FF000084FF0AD
:1002E000000B21F00701AC46ACE8C009ACE8C0093E
:1002F000ACE8C009ACE8C0098D46704710B50446AB
:10030000AFF300802046BDE81040FFF786BF000035
:10031000004870474C00002001491820ABBEFEE7A2
:10032000260002007047002100E0491C00EB40025B
:10033000C2EBC012B1EB820FF7D3704700B5034692
:1003400000202849086042E000202749086035E085
:10035000012000F079FF2548006820F0CC002349F7
:1003600008602148006830B101280BD0022810D065
:1003700003281CD114E01D48006840F084001B498C
:10038000086015E01948006840F04400174908600B
:100390000EE01648006840F048001449086007E085
:1003A0001248006840F088001049086000E000BF73
:1003B00000BF0D480068401C0B4908600A480068EF
:1003C0000428C5DB07480068401C0649086005484A
:1003D00000689842B8DB0548006820F0CC0003496B
:1003E000086000BD440000204800002014040048BC
:1003F00030B52DED088B83B09FED880BB0EE408AB1
:10040000F0EE608A01AD8748C06C40F0100085496D
:10041000C8644FF09040006840F6FC4188434FF0BC
:10042000904108608048006820F07F607E49086045
:100430000846006840F0AA60086000207B49087008
:10044000EAE000207A490870E1E07748406920F44A
:1004500070507549486176480178022000F04AFFE3
:10046000C0F10F007049496941EA80206E49486136
:10047000002070490870C0E00120FFF754FF6D486C
:10048000007803287CD06B480178491C022000F0DA
:1004900031FF4FF0904109690840002870D165484C
:1004A0000078042803D101206349087002E000208D
:1004B000614908705F4800785F490978411A5C48D3
:1004C000007801EB80000E282BD05C490968594A5E
:1004D00012781144584A12788A1A5549097802EB61
:1004E000810052490B780022114600F0DBFA534894
:1004F00000685049097808444F490978411A4C4826
:10050000007811F8200001A9484A12788854474819
:10051000007806285FDA45480078401C4349087097
:1005200059E04448007844490978411A4048007825
:1005300001EB80000C2816D13C480078002804DD2F
:100540003A480078401E394908703848037800223C
:1005500011463A480068103000F0A4FA002101A8C2
:10056000324A127881543348007833490978411A65
:100570002F48007801EB80000E282CD100241EE0CB
:1005800036E0285D01F0EFF841EC1A0B9FED2C0BE3
:1005900053EC102B51EC180B01F0F8F841EC1B0B4D
:1005A00053EC1A2B00F0B0FE41EC190B9FED260B1B
:1005B00053EC102B01F0E8F941EC180B641C1B48BC
:1005C00000788442DDDBB0EE480AF0EE680A03B042
:1005D000BDEC088B30BD00BF16480178491C0220D5
:1005E00000F088FE4FF09041096908400028F3D0E0
:1005F00010480078401C0F4908700E480078052804
:10060000FFF63AAF0A480078401C094908700848CC
:1006100000780428FFF619AF13E70000000000007F
:100620000000000000100240001000482C000020D4
:1006300012000020130000201400002028000020D9
:1006400000000000000024400000000000004840BE
:10065000002000BF0B49096801F004010029F9D10D
:10066000002006E0002207490C3141F82020411CFF
:10067000C8B20F28F6DD0349096841F00401014AB8
:1006800011607047082400402F48806D00F08050B2
:1006900028B92D48806D40F080502B4988652A4844
:1006A000806D2A48006800F4807060B927480068AF
:1006B00040F480702549086000BF2448006800F4B9
:1006C00080700028F9D020489030006820F00500A4
:1006D0001D49C1F890000846D0F8900040F48030E1
:1006E000C1F890000846D0F8900020F48030C1F89E
:1006F000900007E014489030006840F00100124973
:10070000C1F8900010489030006800F00200002806
:10071000F0D00D489030006820F440700A49C1F8CC
:1007200090000846D0F8900040F48070C1F8900026
:100730000846806D20F0805088650846806D40F442
:100740000070886570470000001002400070004093
:100750002248006820F060002049086008460068D0
:1007600040F0400008600846006840F01C00086047
:100770000846006820F004000860081D006840F08A
:100780007000091D0860081F006820F08000091F24
:1007900008600846006820F00200086000BF0F48AB
:1007A0000830006800F020002028F8D10B480068CD
:1007B00040F001000949086000BF0848083000689F
:1007C00000F001000028F8D000BF0448083000689D
:1007D00000F010001028F8D17047000000240040FD
:1007E000F0B50C4615460021002600220778332F6D
:1007F00048D00FDCA7F12007132F50D2DFE807F015
:100800001F4F4F4F4F394F4F242621344F314F3711
:100810003F404100392F3BD008DCA7F13407052FBA
:100820003DD2DFE807F0303132333400642F0FD08F
:100830006D2F10D06E2F11D0FF2F30D11CE0002172
:1008400046E04AF2DD0143E0282141E011213FE08A
:100850004FF473413CE04BF2102139E042F2102199
:1008600036E04FF4204133E04AF2140130E0C02179
:100870002EE04FF433412BE04FF6DD7128E000BF4E
:1008800000BF00BF00BF00BF00BF00BF00BF00BF70
:100890000778303FDFF864C03CF8171018E007789D
:1008A0005B2F08DA0778402F05DD0778413FDFF836
:1008B00050C03CF8171007787B2F08DA0778602FB4
:1008C00005DD0778613FDFF838C03CF8171000BF3E
:1008D00000BF0CB141F002010DB141F020010C2626
:1008E000002208E041FA06F707F00F079F54371F70
:1008F000FEB2571CFAB2042AF4DBF0BD9A1B0008C2
:10090000661B000800B500F007F8FFF7BDFEFFF713
:100910001FFFFFF79DFE00BD5348C06C40F00F0065
:100920005149C8644FF090400068504908404FF06A
:1009300090410860084600684D4908434FF09041D7
:1009400008600846006A20F07F4008620846006A96
:1009500040F03B4008620846406A464908404FF074
:10096000904148620846406A434908434FF090412D
:1009700048620846006840F6FF4188434FF09041C6
:1009800008600846C06840F6FF4188434FF0904138
:10099000C8600846C06840F6AA0108434FF090417D
:1009A000C86036480068364908403449086008463F
:1009B00000683449084331490860304820300068F5
:1009C00000F0FF202D49203108600846006840F003
:1009D000BB1008602948406A4FF60F71084027494C
:1009E00048620846406A2849084324494862274823
:1009F00000682749084025490860084600682549DD
:100A0000084322490860214820300068C0F30B00E9
:100A10001E4920310860084600681F4908431B49E9
:100A2000203108601948406A20F00F0117484162E0
:100A3000406A40F00B01154841621848006880B2D6
:100A400016490860084600681549084313490860BC
:100A50000846406A002111484162406A40F0BB31BB
:100A60000E4841627047000000100240FF0FC03F77
:100A700000A02A8000F0FF0FBB0B00B0000400486C
:100A8000F0F0F3000A0A08AAB000BBBB0008004857
:100A90003F00FCFF80AA020000B0BBBB000C004876
:100AA0000000AAAAF8B505460E4617461C466B4636
:100AB0003A4631462846FFF793FE00BFFE480068DD
:100AC00000F004000028F9D1062C7DD2DFE804F004
:100AD0000398FCFBFAF9F8480C300068F749084025
:100AE000F5490C310860F4480838C069F3490840FA
:100AF000F1490839C8610846406AF0490840EE49A2
:100B0000083948620846C06AEC490840EA49083991
:100B1000C8629DF80000C007C00E9DF80010C1F328
:100B2000400140EAC1509DF80010C1F3800140EA45
:100B300081509DF80010C1F3C00140EAC100DE49B8
:100B40000C3109680843DC490C3108609DF801004C
:100B5000C007C00E9DF80110C1F3400140EAC1502A
:100B60009DF80110C1F3800140EA81509DF8011009
:100B7000C1F3C00140EAC100CF490839C96908433F
:100B8000CD490839C8619DF80200C007C00E9DF824
:100B90000210C1F3400140EAC1509DF80210C1F3B8
:100BA000800140EA81509DF80210C1F3C00140EA83
:100BB000C100C1490839496A0843BF490839486238
:100BC0009DF80300C00700E02EE3C00E9DF803105F
:100BD000C1F3400140EAC1509DF80310C1F3800108
:100BE00040EA81509DF80310C1F3C00140EAC10002
:100BF000B1490839C96A0843AF490839C86214E3E2
:100C0000AD480C30006843F260018843AA490C31BA
:100C10000860A9480838C06943F260018843A649C2
:100C20000839C8610846406A43F260018843A24916
:100C3000083948620846C06A43F2600188439E4909
:100C40000839C8629DF80000C007400E9DF80010EA
:100C5000C1F3400140EA41309DF80010C1F380012A
:100C600040EA01309DF80010C1F3C00140EA411094
:100C700091490C31096808438F490C3108609DF88F
:100C80000100C007400E9DF80110C1F3400140EA89
:100C900041309DF80110C1F3800140EA01309DF818
:100CA0000110C1F3C00140EA411083490839C96904
:100CB000084381490839C8619DF80200C007400E09
:100CC00003E028E27CE1CAE036E09DF80210C1F3BF
:100CD000400140EA41309DF80210C1F3800140EA32
:100CE00001309DF80210C1F3C00140EA4110724981
:100CF0000839496A08437049083948629DF8030079
:100D0000C007400E9DF80310C1F3400140EA413096
:100D10009DF80310C1F3800140EA01309DF80310F3
:100D2000C1F3C00140EA411063490839C96A084368
:100D300061490839C86278E25F480C300068604950
:100D400008405D490C3108605B480838C0695C495F
:100D5000084059490839C8610846406A584908405E
:100D60005549083948620846C06A55490840524901
:100D70000839C8629DF80000C007000C9DF80010FB
:100D8000C1F3400140EA41709DF80010C1F38001B9
:100D900040EA01709DF80010C1F3C00140EA8130C3
:100DA00045490C310968084343490C3108609DF8F6
:100DB0000100C007000C9DF80110C1F3400140EA9A
:100DC00041709DF80110C1F3800140EA01709DF867
:100DD0000110C1F3C00140EA813037490839C969BF
:100DE000084335490839C8619DF80200C007000C66
:100DF0009DF80210C1F3400140EA41709DF80210D5
:100E0000C1F3800140EA01709DF80210C1F3C001F6
:100E100040EA813028490839496A08432649083997
:100E200048629DF80300C007000C9DF80310C1F351
:100E3000400140EA41709DF80310C1F3800140EA8F
:100E400001709DF80310C1F3C00140EA81301A49D6
:100E50000839C96A084318490839C862E5E11648E3
:100E60000C30006820F0404013490C3108601248F3
:100E70000838806920F003010F4808388161C06993
:100E800020F040410C480838C161006A20F003019D
:100E9000094808380162406A20F040410648083895
:100EA0004162806A20F00301034808388162C06A09
:100EB00020F04041004805E008240040E7FF3FFFE4
:100EC000FF3FFFCF0838C162006B20F00301DC4810
:100ED00001639DF80000C0079DF80010C1F3C00138
:100EE00040EA8170D649143109680843D449143165
:100EF00008609DF80000C0F380009DF80010C1F369
:100F0000400140EA4100CE4989690843CC498861E3
:100F10009DF80100C0079DF80110C1F3C00140EA2F
:100F20008170C749C9690843C549C8619DF8010076
:100F3000C0F380009DF80110C1F3400140EA410078
:100F4000BF49096A0843BE4908629DF80200C0070C
:100F50009DF80210C1F3C00140EA8170B849496AA6
:100F60000843B74948629DF80200C0F380009DF82D
:100F70000210C1F3400140EA4100B149896A0843C7
:100F8000AF4988629DF80300C0079DF80310C1F3C4
:100F9000C00140EA8170AA49C96A0843A849C862E9
:100FA0009DF80300C0F380009DF80310C1F34001D9
:100FB00040EA4100A249096B0843A149086334E1B2
:100FC0009F481430006820F040709D49143108603B
:100FD0009B48806920F00C0199488161C06920F02C
:100FE00040719748C161006A20F00C019448016289
:100FF000406A20F0407192484162806A20F00C0102
:101000008F488162C06A20F040718D48C162006BD8
:1010100020F00C018A4801639DF80000C0F34000F5
:1010200040069DF80010C1F3800140EA0160844948
:101030001431096808438249143108609DF80000A2
:10104000C007000F9DF80010C1F3C00140EA810005
:101050007B49896908437A4988619DF80100C0F39A
:10106000400040069DF80110C1F3800140EA016094
:101070007349C96908437249C8619DF80100C007F6
:10108000000F9DF80110C1F3C00140EA81006C49D6
:10109000096A08436A4908629DF80200C0F34000EB
:1010A00040069DF80210C1F3800140EA01606449E6
:1010B000496A0843624948629DF80200C007000F70
:1010C0009DF80210C1F3C00140EA81005C49896AC1
:1010D00008435B4988629DF80300C0F34000400666
:1010E0009DF80310C1F3800140EA01605449C96AC8
:1010F00008435349C8629DF80300C007000F9DF8DC
:101100000310C1F3C00140EA81004D49096B084357
:101110004B49086389E04A4814300068494908404F
:101120004749143108604648C06946490840444967
:10113000C8610846406A4349084041494862084638
:10114000C06A404908403E49C8629DF80000C00797
:10115000800B9DF80010C1F3400140EA01209DF88A
:101160000010C1F3800140EA41209DF80010C1F356
:10117000C00140EA816032491431096808433049AE
:10118000143108609DF80100C007800B9DF8011024
:10119000C1F3400140EA01209DF80110C1F3800134
:1011A00040EA41209DF80110C1F3C00140EA81608E
:1011B0002349C96908432249C8619DF80200C00754
:1011C000800B9DF80210C1F3400140EA01209DF818
:1011D0000210C1F3800140EA41209DF80210C1F3E2
:1011E000C00140EA81601649496A084314494862CF
:1011F0009DF80300C007800B9DF80310C1F3400168
:1012000040EA01209DF80310C1F3800140EA41202B
:101210009DF80310C1F3C00140EA81600849C96A22
:1012200008430749C86200E000BF00BF0448083017
:10123000006840F00400024908310860F8BD000071
:1012400000240040FFFCFDFB002100E0491C40F2AF
:1012500077124243B1EBC20FF8D3704707480068DA
:101260004FF2F0018843054908600846006845F2DE
:10127000500108430149086070470000000400481D
:101280002DED028BFFF73EFBFFF7E8FF24E0FFF7B1
:10129000AFF8124880ED000B9FED110B53EC102BB3
:1012A00090ED000B51EC100B00F0D6F841EC180B50
:1012B0009FED0D0B53EC102B00F068FA0C4A03C2A3
:1012C000FFF7C6F90A4890ED000B51EC100B00F047
:1012D0001BFA0446FFF732F8D9E7000000000020AF
:1012E0000000000000807640000000000000804008
:1012F000080000200246012003E000FB02F3D8B200
:10130000491E0029F9DC704710B591EA030F48BF68
:1013100083F0004300F14083841A71EB030C05D283
:10132000121943EB0C03001B61EB0C01DFF824E105
:101330004FEA1154A4EB135C1EEA430F18BF9EEA58
:10134000445F73D023EA0E03DCF1200E21EA04513E
:1013500043F4801332D322FA0CFE10EB0E0023FA72
:101360000CFE41EB0E01CCF1200E03FA0EFE10EB49
:101370000E0051F10001B1F5801FCCF1200E32D2E8
:1013800001EB045112FA0EF2BDE8104058BF70474D
:10139000401C38BF5FEA420218BF7047002814BFE4
:1013A00020F0010041F100014FEA410313F5001F55
:1013B00038BF7047A1F1C04100F0E0BA012A43EB09
:1013C0000302ACF1200CDCF11F0E32BF4FF0000E17
:1013D00023FA0CF310EB030041EB0451B4EB115F63
:1013E000D0D0A1EB045101F5801149085FEA30002B
:1013F00001EB04510ED350F1000038BF12FA0EFE7B
:1014000008D1BDE81040C9E7401C38BF5FEA42027E
:10141000CAD1C3E7BDE810404FEA410313F5001FEE
:1014200038BF7047A1F1C04100F0A8BA9EEA445FFE
:1014300008D011EA5E0FBDE8104004BF01F0004182
:1014400000207047BDE8104070B500F049FA00BFB9
:1014500064FBBE3E0000E0FF2DE9C04130B4DFF880
:10146000A0C23CEA111418BF3CEA131400F0EC804F
:1014700081EA03051CEA111444EAD57418BF1CEA7A
:10148000131500F0C780A4EB05044FF0004545EAB2
:10149000C12145EAC32341EA505143EA525304F1C2
:1014A0007F74994204F500344FEAC0204FEAC2220B
:1014B00008BF904200F09C804FEA13650FF240167F
:1014C000765D4FEA134506FB05F7C7F1807706FB0B
:1014D00007F74FEAD737A7FB03687642C8F580388D
:1014E000A7FB06CE38BFA8F1010807FB08E64FF0BE
:1014F000000EA6FB028CE6FB03CEDCF1000CCEF165
:10150000004E38BFAEF1010EA6FB0C584FF000079D
:101510004FF00005E6FB0E87A1FB08C6A0FB07CE37
:1015200016EB0E0645F10005E1FB076515F1E04EEF
:101530007EBFA4F580345FEA46066D4116F1800750
:1015400045F100054FEA17274FEA066647EA0567A7
:10155000A6F1DE46B6F1805F4FEA15251FD9384661
:1015600024F0010C05EBC471BCF1FE6F01EB0C1112
:1015700002D8F0BCBDE8008124425CBF01F5801EAA
:101580009EEAC47F02D4F0BCBDE80081244238D476
:10159000F0BCA1F1C041BDE8004100F0EFB94FEA55
:1015A000D22242EA43524FEAD323A7FB02864FEAF4
:1015B000D02040EA415007FB03661EEA0E0F4FEAB7
:1015C000D12105FB026658BFA6EB0056B6EB0056CC
:1015D0004FEA520E4EEAC37E18EB0E0E56EB530E38
:1015E000BDD518EB02085E417F1C55F10005B6E73A
:1015F0004FF480154FF000074FF000064FF0000841
:10160000ADE7F0BC4FF0000001F1C04101F0004136
:10161000BDE8008111EA0C1F0CEA131500D00CE0A4
:1016200013EA0C1F00F025804FF00000F0BC81EAA7
:10163000030101F00041BDE80081F0BCBDE80041BC
:1016400081EA030100F09AB9F0BCBDE8004170B531
:1016500000F046F9097EFC3E00F007B881EA03017C
:101660004FF0000001F00041704781EA030100F0F3
:1016700085B9F0BCBDE800414FF00000214970473A
:10168000FFFDFBF9F7F5F4F2F0EEEDEBE9E8E6E447
:10169000E3E1E0DEDDDBDAD8D7D5D4D3D1D0CFCDCE
:1016A000CCCBCAC8C7C6C5C4C2C1C0BFBEBDBCBB07
:1016B000BAB9B8B7B6B5B4B3B2B1B0AFAEADACAB02
:1016C000AAA9A8A8A7A6A5A4A3A3A2A1A09F9F9EDC
:1016D0009D9C9C9B9A99999897979695959493938E
:1016E000929191908F8F8E8E8D8C8C8B8B8A898925
:1016F00088888787868585848483838282818180A8
:101700000000FF070000F87F4FEA41034FEA535300
:10171000A3F58063D3F11E03C8BFD3F1210C0CDD08
:101720004FF0004242EAC12242EA505232FA03FC30
:101730008CEAE17CACEBE1707047102BC4BF002059
:10174000704703F5787CBCF1FF3F04D06FF0004296
:1017500082EA2100704770B500F0C2F849922480F7
:1017600000207047F2E7B0FA80F310FA03F10AD0D4
:10177000C3F11D0303F580634FEA41504FEA035262
:1017800002EBD12170474FF000007047DFF848C1ED
:1017900070B51CEA111E1EBF1CEA13159EEA0C0F41
:1017A00095EA0C0F00F06F8081EA030423EA4C13E2
:1017B0004EEAD47E21EA4C1141F4801143F48013A7
:1017C000AE44A1FB024CA0FB0365AEF17F7E36194F
:1017D00055EB0C05A1FB034C4CF10003A0FB021CD4
:1017E00016EB0C06654153F10003094218BF46F0A1
:1017F000010613F4007F0BD14FEA03314FEA0530A5
:10180000340341EA155140EA16506FF003020AE032
:101810004FEAC3214FEAC520F40241EA555140EA9C
:1018200056506FF0020202EB2E4201EB025585EAA0
:10183000CE710AD05FEA440C18BF24F0004450F186
:10184000000041F1000120EAD47040F2FE7C6245C4
:1018500000D270BDA84214BF4FF080444FF0404406
:10186000002E08BF0024BEF1806FA8BFA1F1C041C7
:10187000BDE8704080F282804FF0000001F1C0416D
:1018800001F0004170479EEA0C0F0CEA131518BFD7
:1018900095EA0C0F06D04FF0000081EA030E0EF01F
:1018A000004170BD00F01CF88900013E00F007B84F
:1018B00000F009B84FEA430C5FEA5C5C08D081EAAB
:1018C000030100F05BB84FEA410C5FEA5C5CF6D1C3
:1018D0004FF00000014970470000FF070000F87F4B
:1018E0000EF1020E2EF0030E5EF8046B364205D4A4
:1018F000012A43EB030515F5001F12D8012841EB1F
:10190000010C1CF5001F0CD80ED14FEAD17C15F547
:10191000001F0CEB4C0C0CF1020C08BF4CEBD37C01
:1019200004E04FF0080C01E04FEAD37C0CEB4C05CF
:1019300026FA05F606F00706B6F1040C06D20EEB01
:10194000860CBDE870404CF0010C6047DFE80CF0FD
:10195000090B02024FF000414FF00000A1F50021F9
:1019600070BD19461046012851EB010418BFD4F58B
:10197000001484BF002001F0004170BD0808A0F5EC
:1019800000114FEA3101704710B591EA030F48BFCB
:1019900083F000433FF5C0AC841A71EB030C07D20F
:1019A00012198CF0004C43EB0C03001B61EB0C0193
:1019B000DFF8A4E14FEA1154A4EB135C1EEA430FD5
:1019C00018BF9EEA445F00F0B08023EA6E035242E3
:1019D00021EA0451C3EB6E0338BF5B1EDCF1200E1D
:1019E00025D322FA0CFE10EB0E0043FA0CFE41EB5D
:1019F0000E01CCF1200E03FA0EFE10EB0E0051F199
:101A00000001CCF1200E29D412FA0EF201EB0451A0
:101A1000BDE8104058BF7047401C1CBFB2F1004FDA
:101A2000704700280CBF491C20F00100704712EBE2
:101A3000020E43EB030218BF4FF0010E4EEA4202C2
:101A4000ACF1200CDCF11E0E54D943FA0CFE10EB65
:101A50000E0051F1FF31CCF11E0ED5D50EF1010E65
:101A600012FA0EFE404141EB010101EB445C5FEADA
:101A70005C5C10D910EBDE7001EB045138BFBEF195
:101A8000004FBDE8104018BF704700280CBF491C2C
:101A900020F00100704730D24FEAD42C11F500112C
:101AA00024F400641BD0B1FA81F20B3AA41AA41EEC
:101AB000D2F12003914030FA03F31943904001EB37
:101AC000CC71002C01EB0451BDE81040A8BF704759
:101AD00001F1C0414FF0000001F000417047B0FA41
:101AE00080F310FA03F100D110BDE41A173C480549
:101AF000C90AE4E701EB045110BD491001EB0451A0
:101B0000BDE810404FEA300002E04FF0000170479E
:101B10004A0008BF0042F8D0B2F5001F28BF704746
:101B200001F000414FF0000070479EEA445F07D08B
:101B300011EA5E0FBDE8104004BF0021002070478D
:101B4000BDE8104070B5FFF7CBFE00BF40DFF63EAA
:101B500083F00041104670470000E0FF4FF04070F6
:101B6000E1EE100A704700FE1467001D1447009D47
:101B7000009C003F00FA1400005341980019485A95
:101B8000095A005F00FC015F01FC00AF1404005B18
:101B9000C018815AC9005800C005005F004200F516
:101BA000006700EA00AF00BF004600FF00EF000042
:101BB000D01B0008000000204C000000C4010008F9
:101BC0001C1C00084C00002064060000E001000816
:101BD0000000000000000000000000000000000005
:101BE0000000000000313233413435364237383995
:101BF0004323302344200000150000200000000093
:101C00000000000000000000000000003400002080
:0C1C1000000000000000000000000000C8
:040000050800018965
:00000001FF
